:1000000045C0000060C000005EC000005CC0000091
:100010005AC0000058C0000056C0000054C0000084
:1000200052C0000050C000004EC000004CC0000094
:100030004AC0000048C0000046C0000044C00000A4
:1000400042C0000040C0000059C000003CC0000099
:100050003AC0000038C0000036C0000034C00000C4
:1000600032C0000030C000002EC000002CC00000D4
:100070002AC0000028C0000026C0000024C00000E4
:1000800022C0000020C000001EC0000011241FBEBE
:10009000CFEFD0E1DEBFCDBF11E0A0E0B1E0ECE3F7
:1000A000F1E000E00BBF02C007900D92A630B1074F
:1000B000D9F721E0A6E0B1E001C01D92A830B20757
:1000C000E1F72ED039C09CCF1092900087E689B915
:1000D00088E98AB986E08093950008955D9BFECFFC
:1000E0008CB90895CF93DF93EC0102C02196F6DF1F
:1000F00088818111FBCFDF91CF9108951F920F92DC
:100100000FB60F9211248F938CB18093070181E079
:10011000809306018F910F900FBE0F901F9018953E
:10012000D3DF7894809106018823E1F310920601D1
:0C01300080E091E0D7DFF6CFF894FFCF1D
:06013C0041434B0D0A00D7
:00000001FF
