S0110000544553542E554152542E7372656369
S113000045C0000060C000005EC000005CC000008D
S11300105AC0000058C0000056C0000054C0000080
S113002052C0000050C000004EC000004CC0000090
S11300304AC0000048C0000046C0000044C00000A0
S113004042C0000040C000006EC100003CC000007F
S11300503AC0000038C0000036C0000034C00000C0
S113006032C0000030C000002EC000002CC00000D0
S11300702AC0000028C0000026C0000024C00000E0
S113008022C0000020C000001EC0000011241FBEBA
S1130090CFEFD0E1DEBFCDBF11E0A0E0B1E0E0E200
S11300A0FDE000E00BBF02C007900D92AE39B1072E
S11300B0D9F722E0AEE9B1E001C01D92AF3BB2072F
S11300C0E1F79FD02BC69CCFDC0140E050E08FEFDE
S11300D09FEF1BC0FD01E40FF51F208130E0322F9C
S11300E022278227932720E00CC099233CF4880F11
S11300F0991F31E2832730E1932702C0880F991FAB
S11301002F5F283090F34F5F5F4F4617570710F368
S11301100895FC018AE1DF011D928A95E9F781E1E6
S113012095EA918380831486138A0895CF93DF938D
S1130130EC014AE150E060E070E0E0D5888199810B
S11301408131954A21F0CE01E4DF80E00EC068E100
S113015070E0CE01B9DF288D398D8217930721F025
S1130160CE01D7DF80E001C081E0DF91CF91089517
S1130170FC018485823059F482819381A481B58104
S1130180FB0180839183A283B38381E008958389F3
S1130190823059F485859685A785B089FB018083D3
S11301A09183A283B38381E0089580E00895CF937F
S11301B0DF93EC01688179818A819B8140E051E081
S11301C0EDD3688179818A819B8111D4DF91CF91AC
S11301D008950F93CF93DF93EC01688179818A812D
S11301E09B8145E051E0DAD3688179818A819B81E2
S11301F001E320E340E31BD4DF91CF910F910895F5
S11302000895CF93DF9300D000D0CDB7DEB760E878
S113021075E280E090E064D0789485EA92E086DF2D
S1130220882379F0BE016F5F7F4F85EA92E0A0DFFB
S1130230882339F069817A818B819C814EE051E079
S113024029D480E291E063D04ED4FECF10929F0176
S113025010929E01089520919F0130E02F5F3F4F3F
S11302602F773078332334F42150310920683F6FDD
S11302702F5F3F4F90919E01921741F0E0919F01B3
S1130280F0E0E056FE4F808320939F010895209173
S11302909F0190919E0181E0291380E00895CF93FE
S11302A0DF93EC01F4DF811117C0E0919E01F0E0CF
S11302B0E056FE4F8081888380919E0190E00196F4
S11302C08F779078992324F4019780689F6F019623
S11302D080939E0181E001C080E0DF91CF91089579
S11302E09B01AC0160E472E48FE090E0D3D4215030
S11302F031093093900029B988E98AB986E080935E
S11303009500A4CF08955D9BFECF8CB90895CF933B
S1130310DF93EC0102C02196F6DF88818111FBCFC7
S1130320DF91CF9108951F920F920FB60F9211246F
S11303300BB60F922F933F934F935F936F937F93DB
S11303408F939F93AF93BF93EF93FF938CB183DF0E
S1130350FF91EF91BF91AF919F918F917F916F9199
S11303605F914F913F912F910F900BBE0F900FBE55
S11303700F901F901895EF92FF920F931F93CF93B6
S1130380DF931F92CDB7DEB78C01E62E3BC0898187
S11303908A30F1F480916202882329F0109262027B
S11303A0109263022FC080916302882359F1E816EA
S11303B008F0E82EF12CA70164E672E0C8018CD4A1
S11303C0F801EE0DFF1D10821092630281E01FC040
S11303D08D30C1F090916202911114C0E0916302DA
S11303E0E03440F081E080936202809361021092D5
S11303F0630208C091E09E0F90936302F0E0EC5911
S1130400FD4F8083CE0101964ADF8111C0CF0F904A
S1130410DF91CF911F910F91FF90EF9008958091FC
S11304206102882319F01092610281E00895FC01B1
S113043020E080E01CC09C3769F4DB0130E1839F3D
S1130440A00DB11D1124A20FB11D1C928F5F319616
S113045020E00DC02F3050F4DB0130E1839FA00D6C
S1130460B11D1124A20FB11D9C932F5F3196908171
S1130470992311F08417F8F2841750F490E1899FBE
S1130480600D711D1124FB01E20FF11D10828F5FBD
S11304900895FC018081811105C009C090539A30F0
S11304A040F4319690819111F9CF81E0089580E074
S11304B0089580E00895FC018081811109C00DC078
S11304C080ED890F91548A3010F0963040F43196C3
S11304D090819111F5CF81E0089580E0089580E046
S11304E00895FC0180E090E0DC0130C0880F991F82
S11304F0AA1FBB1F880F991FAA1FBB1F880F991F14
S1130500AA1FBB1F880F991FAA1FBB1F20ED240F12
S11305102A3060F450E040535109052E000C660B5C
S1130520770B842B952BA62BB72B0FC02FEB240F07
S1130530263058F450E047535109052E000C660B41
S1130540770B842B952BA62BB72B31964081411129
S1130550CDCFBC01CD0108950F931F93FC0160E042
S113056070E0CB0124C0DC01CB01880F991FAA1FC6
S1130570BB1F8C019D01000F111F221F331F000F91
S1130580111F221F331F800F911FA21FB31F50E0A2
S113059040535109052E000C660B770B8C019D010D
S11305A0040F151F261F371FC901B801319640815A
S11305B04111D9CF1F910F910895CF92DF92EF92FD
S11305C0FF920F931F93CF93DF93CDB7DEB761975D
S11305D00FB6F894DEBF0FBECDBF6B017C0181E185
S11305E0EEE3F1E0DE01119601900D928A95E1F7B8
S11305F087E01CC0FA01E80FF11D87FDFA95970109
S113060086010F70112722273327A1E0B0E0AC0F39
S1130610BD1FA00FB11F9C919083689413F8F694AA
S1130620E794D794C7941694D1F78150882314F78C
S1130630FA01108661960FB6F894DEBF0FBECDBFE7
S1130640DF91CF911F910F91FF90EF90DF90CF90AA
S11306500895CF93DF93EC0160E071E046D3892BDA
S113066071F065E071E0CE0140D3892B51F06FE465
S113067071E0CE013AD3892B31F482E005C080E0E9
S113068003C081E001C083E0DF91CF9108958F9290
S11306909F92AF92BF92EF92FF920F931F93CF93CB
S11306A0DF93CDB7DEB7C056D1090FB6F894DEBFDD
S11306B00FBECDBF8B0146E0BE016F5F7F4FB7DE3B
S11306C0853009F07CC0DE015196FD0101900020C7
S11306D0E9F73197EA1BFB0B389709F072C0CD019B
S11306E0EADE882309F46FC0DE019196FD010190D2
S11306F00020E9F73197EA1BFB0B319709F065C03D
S11307005096FD0101900020E9F73197EA1BFB0B9D
S1130710319709F05CC0CE018196BBDE882309F4D1
S113072058C0CE01C196B5DE882309F454C0DE0159
S1130730AF5BBF4FFD0101900020E9F73197EA1B41
S1130740FB0B369709F049C0CD01A3DE882309F4D9
S113075046C0CE014196C5DEF80160837183828371
S1130760938389A10F2EF0EDEF2EF02DE80E89A9C9
S11307700F2EF0EDFF2EF02DF80EF1E0FE1588F1AE
S113078024E02F1580F1CE018F5B9F4FE5DE4B01F6
S11307905C01E1E08E1A9108A108B108FFE38F160D
S11307A0F2E49F06FFE0AF06B104F8F4F801E48236
S11307B0F582668377838087918780E017C081E024
S11307C015C081E013C081E011C081E00FC081E059
S11307D00DC081E00BC081E009C081E007C081E069
S11307E005C082E003C082E001C083E0C05ADF4F4D
S11307F00FB6F894DEBF0FBECDBFDF91CF911F912E
S11308000F91FF90EF90BF90AF909F908F900895BD
S11308100F931F93CF93DF93CDB7DEB7C056D109A3
S11308200FB6F894DEBF0FBECDBF8B0146E0BE010C
S11308306F5F7F4FFCDD843009F042C0DE015196CA
S1130840FD0101900020E9F73197EA1BFB0B389773
S1130850C9F5CD0130DE8823B9F1DE019196FD01A1
S113086001900020E9F73197EA1BFB0B319771F5F2
S11308705096FD0101900020E9F73197EA1BFB0B2C
S1130880319731F5CE01819604DE882319F1CE012A
S1130890C196FFDD882301F1CE01419622DEF801E5
S11308A0608371838283938399A1905389A9805330
S11308B09230A0F48530A0F49483858380E011C045
S11308C081E00FC081E00DC081E00BC081E009C070
S11308D081E007C081E005C081E003C082E001C07F
S11308E082E0C05ADF4F0FB6F894DEBF0FBECDBF13
S11308F0DF91CF911F910F9108950F931F93CF9381
S1130900DF93CDB7DEB7C056D1090FB6F894DEBF7A
S11309100FBECDBF8B0146E0BE016F5F7F4F87DD09
S1130920833039F56FE471E0CE010196DED1892B75
S113093011F5DE015196FD0101900020E9F7319790
S1130940EA1BFB0B3897C9F4CD01B5DD8823B9F058
S113095063E571E0CE018196C8D1892B91F4CE0173
S11309604196BFDDF801608371838283938380E0C5
S113097009C081E007C081E005C081E003C081E0D7
S113098001C081E0C05ADF4F0FB6F894DEBF0FBE3E
S1130990CDBFDF91CF911F910F9108950F931F93B6
S11309A0CF93DF93CDB7DEB729970FB6F894DEBFA8
S11309B00FBECDBF8A01AE014F5F5F4FFEDD8AE5FA
S11309C091E0A5DCCE010196A2DC8CE79CDCC80199
S11309D09EDC8CE391E09BDC29960FB6F894DEBF95
S11309E00FBECDBFDF91CF911F910F910895CF938B
S11309F0DF93CDB7DEB729970FB6F894DEBF0FBEED
S1130A00CDBFAE014F5F5F4FD8DD8FE591E07FDC56
S1130A10CE0101967CDC8CE391E079DC29960FB65B
S1130A20F894DEBF0FBECDBFDF91CF910895FF9242
S1130A300F931F93CF93DF93CDB7DEB729970FB6EC
S1130A40F894DEBF0FBECDBFF42E122FAE014F5F60
S1130A505F4FB3DD85E691E05ADCCE01019657DCA9
S1130A608CE751DC80E38F0D4EDC80E3810F4BDC9F
S1130A7080E3800F48DC8CE391E049DC29960FB6D3
S1130A80F894DEBF0FBECDBFDF91CF911F910F91C0
S1130A90FF9008950F931F93CF93DF93CDB7DEB7E5
S1130AA029970FB6F894DEBF0FBECDBF8A01AE0101
S1130AB04F5F5F4F82DD8DE691E029DCCE01019628
S1130AC026DC8CE720DCC80122DC8CE391E01FDC0F
S1130AD029960FB6F894DEBF0FBECDBFDF91CF913C
S1130AE01F910F9108951F93CF93DF93CDB7DEB776
S1130AF0CA56D1090FB6F894DEBF0FBECDBFB0C041
S1130B0046E0BE016F5F7F4F80E292E090DC182FD9
S1130B10882309F4A5C0CE0101969BDD813009F438
S1130B203BC020F0823009F468C077C0BE016F5921
S1130B307F4F80E292E0ABDD182F811105C0CE011A
S1130B408F599F4F34DB8CC0DE015196FD0101901B
S1130B500020E9F73197EA1BFB0B389741F4CD01EC
S1130B60AADC882341F0CE014196BBDC07C060E0DB
S1130B7070E0CB0103C060E070E0CB01123029F0DB
S1130B80133031F441E951E005C043E851E002C0BB
S1130B9044E751E07FDF64C0BE016F597F4F80E2BC
S1130BA092E036DE182F811105C0CE018F599F4F78
S1130BB010DB56C0DE015196FD0101900020E9F7DB
S1130BC03197EA1BFB0B389741F4CD0174DC882381
S1130BD041F0CE01419685DC07C060E070E0CB01B6
S1130BE003C060E070E0CB01123019F443E851E037
S1130BF002C044E751E04EDF33C0BE016F597F4F5E
S1130C0080E292E07ADE81112BC0A5966CAD7DADB9
S1130C108EAD9FADA597F4DA23C0123098F0DE01B3
S1130C205196FD0101900020E9F73197EA1BFB0B77
S1130C30389761F4CD013FDC882361F0CE01419601
S1130C4050DC0BC060E070E0CB0107C060E070E0F6
S1130C50CB0103C060E070E0CB0144E751E01ADF50
S1130C6060E480E292E087DB81114ACFD8DB8823FD
S1130C7031F044E751E060E070E0CB010BDFC6598E
S1130C80DF4F0FB6F894DEBF0FBECDBFDF91CF911B
S1130C901F910895A1E21A2EAA1BBB1BFD010DC0D2
S1130CA0AA1FBB1FEE1FFF1FA217B307E407F50718
S1130CB020F0A21BB30BE40BF50B661F771F881FF4
S1130CC0991F1A9469F760957095809590959B018A
S1130CD0AC01BD01CF010895FB01DC0102C001900C
S1130CE00D9241505040D8F70895FB01DC018D91DD
S1130CF0019080190110D9F3990B0895DC01CB01FF
S1130D00FC01E199FECF06C0FFBBEEBBE09A319631
S1130D100DB20D9241505040B8F70895F894FFCFAA
S1130D204D4F56450044495350454E534500524596
S1130D30434F564552595F52455155495245440017
S1130D40534C4F542D47554152442041546D6567CF
S1130D5061313238412052656164790D0A003031C5
S1130D6032333435363738394142434445460041FD
S1130D70434B00524553554C540041434B7C005760
S1130D804149547C00524553554C547C00455252C1
S1130D904F527C00494E56414C49445F464F524D98
S1130DA0415400494E56414C49445F434F4F5244CD
S1110DB000494E56414C49445F54494D45009C
S9030000FC
