S0170000544553542E535445505F4D4F544F522E7372656373
S113000045C0000060C000005EC000005CC000008D
S11300105AC0000058C0000056C0000054C0000080
S113002052C00000D6C000004EC000004CC000000A
S11300304AC0000048C0000046C0000044C00000A0
S113004042C0000040C00000DBC000003CC0000013
S11300503AC0000038C0000036C0000034C00000C0
S113006032C0000030C000002EC000002CC00000D0
S11300702AC0000028C0000026C0000024C00000E0
S113008022C0000020C000001EC0000011241FBEBA
S1130090CFEFD0E1DEBFCDBF11E0A0E0B1E0E6EBF1
S11300A0F3E000E00BBF02C007900D92AA39B1073C
S11300B0D9F721E0AAE9B1E001C01D92A53AB2073F
S11300C0E1F7B6D076C19CCF8BE085BD89EF83BDC7
S11300D087B7806887BF0895F89480919C019091B8
S11300E09D01789408951092900087E689B988E973
S11300F08AB986E08093950008955D9BFECF8CB904
S11301000895CF93DF93EC0102C02196F6DF888136
S11301108111FBCFDF91CF9108951F93CF93DF938C
S113012000D000D000D0CDB7DEB7AC01892B79F573
S113013080E3E3DF3CC09A01ADECBCEC2BD1969597
S1130140879596958795969587959C01220F331FE1
S1130150880F991F880F991F880F991F820F931F6B
S11301609A01281B390BC901E1E0F0E0EC0FFD1FF7
S1130170E10FF11D805D80839A010CD1AC0156958D
S1130180479556954795569547951F5F01C010E0D2
S11301904115510581F609C01150E1E0F0E0EC0F82
S11301A0FD1FE10FF11D8081A8DF1111F5CF269607
S11301B00FB6F894DEBF0FBECDBFDF91CF911F9174
S11301C0089580919A01089580919B0110929A015B
S11301D008951F920F920FB60F9211248F939F933D
S11301E080919C0190919D01019690939D01809333
S11301F09C019F918F910F900FBE0F901F901895A7
S11302001F920F920FB60F9211248F939F939CB15C
S113021080919A01811105C090939B0181E08093A4
S11302209A019F918F910F900FBE0F901F90189578
S11302305ADF4ADF4AD0789480E091E062DF88E1B7
S113024091E05FDF00E010E047DFEC0156D0B9DF5A
S11302508823D1F3B9DF873611F0873441F4BE0126
S113026080E03ED08CE491E04CDF8E01EDCF82370C
S113027011F0823541F4BE0181E032D08DE591E088
S113028040DF8E01E1CF8032F9F67CD0882399F0EB
S113029031D07BD07C01C01BD10B8EE691E031DFE5
S11302A0C7013BDF8BE791E02CDFCE0136DF82E82C
S11302B091E027DFC9CF88E891E023DFC5CF9BB366
S11302C0907F8F70892B8BBB08958AB38F608ABB14
S11302D08BB3807F8BBBEEE9F1E016821182089527
S11302E0EEE9F1E08083158214827383628381E0F6
S11302F0868308951092A4010895CF93DF939C01FF
S11303009091A4019923D9F18091A0019091A10128
S1130310A901481B590B4330510588F1EEE9F1E07E
S113032033832283808181110FC080919F0190E0EB
S1130330019683709078992324F401978C6F9F6FB2
S1130340019680939F010EC080919F0190E00396D7
S113035083709078992324F401978C6F9F6F019692
S113036080939F01CEE9D1E0E981F0E0EA56FE4FA7
S11303708081A5DF8C819D8101969D838C83DF9193
S1130380CF9108958091A40108958091A201909144
S1130390A3010895A29FB001B39FC001A39F700D54
S11303A0811D1124911DB29F700D811D1124911D79
S10903B00895F894FFCF4C
S11303B6537465702043616C6962726174696F6E0F
S11303C6204D6F64650D0A00673D666F7277617232
S11303D6642072756E2C20723D7265766572736543
S11303E62072756E2C2053504143453D73746F70D3
S11303F62026207265706F72740D0A0052554E20C5
S1130406464F52574152442E2E2E0D0A0052554E37
S113041620524556455253452E2E2E0D0A0053544E
S11304264F503A2073746570733D002074696D658E
S11304363D00206D730D0A004E4F542052554E4E0A
S10D0446494E470D0A0003060C0995
S9030000FC
