S0170000544553542E535445505F4D4F544F522E7372656373
S113000045C0000060C000005EC000005CC000008D
S11300105AC0000058C0000056C0000054C0000080
S113002052C0000050C000004EC000004CC0000090
S11300304AC0000048C0000046C0000044C00000A0
S113004042C0000040C0000068C000003CC0000086
S11300503AC0000038C0000036C0000034C00000C0
S113006032C0000030C000002EC000002CC00000D0
S11300702AC0000028C0000026C0000024C00000E0
S113008022C0000020C000001EC0000011241FBEBA
S1130090CFEFD0E1DEBFCDBF11E0A0E0B1E0E8E7F3
S11300A0F2E000E00BBF02C007900D92A033B1074D
S11300B0D9F721E0A0E3B1E001C01D92A233B20759
S11300C0E1F774D0D7C09CCF95B3907F8F70892B04
S11300D085BB08959C0140E050E060E472E48FE049
S11300E090E0A6D0215031093093900029B988E9D5
S11300F08AB986E08093950008955D9BFECF8CB904
S11301000895CF93DF93EC0102C0F7DF2196888135
S11301108111FBCFDF91CF9108951F920F920FB6FB
S11301200F9211240BB60F922F933F934F935F932B
S11301306F937F938F939F93AF93BF93EF93FF93AB
S11301408CB18335D9F028F4823489F0863441F0B7
S11301501AC0863629F0833789F08236A1F407C0A5
S113016081E08093310180E091E0CBDF0CC082E03C
S1130170809331018AE091E0C4DF05C0109231011F
S113018085E191E0BEDFFF91EF91BF91AF919F9127
S11301908F917F916F915F914F913F912F910F902C
S11301A00BBE0F900FBE0F901F90189584B38F60F5
S11301B084BB80E895E28EDF78948CE191E0A1DF46
S11301C080913101813019F08230A9F0F9CFE091AA
S11301D03001E370F0E0E45DFE4F808175DF8091D3
S11301E030018F5F809330018FED9EE20197F1F72C
S11301F000C00000E5CFE0913001E370F0E0E45D81
S1130200FE4F808161DF8091300190E0039683701E
S11302109078992324F401978C6F9F6F01968093B3
S113022030018FED9EE20197F1F700C00000C8CFC6
S1130230A1E21A2EAA1BBB1BFD010DC0AA1FBB1FE6
S1130240EE1FFF1FA217B307E407F50720F0A21B58
S1130250B30BE40BF50B661F771F881F991F1A94C5
S113026069F760957095809590959B01AC01BD01EF
S10B0270CF010895F894FFCFBB
S1130278464F52574152440D0A004241434B57419D
S113028852440D0A0053544F500D0A00524541443C
S1130298592028662F622F73290D0A0001020408C9
S9030000FC
