:1000000045C0000060C000005EC0000019C10000D3
:100010005AC000002EC1000056C0000054C00000AD
:1000200052C00000CFC000004EC000004CC0000015
:100030004AC0000048C0000046C0000044C00000A4
:1000400042C0000040C000003EC000003CC00000B4
:100050003AC0000038C0000036C0000034C00000C4
:1000600032C0000030C000002EC000002CC00000D4
:100070002AC0000028C0000026C0000024C00000E4
:1000800022C0000020C000001EC0000011241FBEBE
:10009000CFEFD0E1DEBFCDBF12E0A0E0B1E0E0EAFB
:1000A000F4E000E00BBF02C007900D92A632B1074A
:1000B000D9F722E0A6E2B2E001C01D92AF32B2074A
:1000C000E1F7F0D0EBC19CCF9B01AC0160E472E49E
:1000D0008FE090E0B2D1215031093093900029B9DE
:1000E00088E18AB986E08093950008955D9BFECFF4
:1000F0008CB90895CF93DF93EC0102C02196F6DF0F
:1001000088818111FBCFDF91CF9108951F93CF9309
:10011000DF9300D000D000D0CDB7DEB7AC01892B83
:1001200079F580E3E3DF3CC09A01ADECBCECA7D1EC
:100130009695879596958795969587959C01220F1C
:10014000331F880F991F880F991F880F991F820FDF
:10015000931F9A01281B390BC901E1E0F0E0EC0F75
:10016000FD1FE10FF11D805D80839A0188D1AC01F4
:100170005695479556954795569547951F5F01C0EB
:1001800010E04115510581F609C01150E1E0F0E0A1
:10019000EC0FFD1FE10FF11D8081A8DF1111F5CFDC
:1001A00026960FB6F894DEBF0FBECDBFDF91CF917C
:1001B0001F9108958CE085BD89EF83BD87B7806866
:1001C00087BF08951F920F920FB60F9211248F933D
:1001D0009F9380912A0290912B02019690932B027B
:1001E00080932A029F918F910F900FBE0F901F90C6
:1001F000189581B38B7F81BB82B3846082BB82B14F
:100200008F7E82B983B1806183B9EAE6F0E08081B4
:100210008F7C80838081806180838AB78C7F8ABF56
:100220008AB781608ABF89B7846189BF089580B326
:1002300082FB882780F9089581B1829581700895A5
:100240001F920F920FB60F9211248F939F9381E00C
:1002500080932C0280912A0290912B029093290284
:10026000809328029F918F910F900FBE0F901F9047
:1002700018951F920F920FB60F9211248F939F9390
:1002800081E080932C0280912A0290912B0290931E
:100290002902809328029F918F910F900FBE0F909B
:1002A0001F901895C4B714BE60E875E280E090E036
:1002B0000BDF80DF9EDF78948EE591E01BDF81EA23
:1002C00091E018DFC0FF03C08FEA91E013DFC1FFA8
:1002D00003C089EB91E00EDFC2FF03C083EC91E025
:1002E00009DFC3FF03C08EEC91E004DFC4FF03C04D
:1002F00088ED91E0FFDE8CE291E0FCDE98DF8093F8
:100300002E029ADF80932D0280912E02882319F00D
:1003100080E091E002C087E191E0ECDE80912D0267
:10032000882319F08FE291E002C086E491E0E2DEDA
:1003300080912C028823E1F3F89410922C02789497
:1003400076DF082F79DF011106C090912E029130DF
:1003500021F0D0E003C0D0E001C0D1E0811106C09F
:1003600090912D02913021F010E003C010E001C007
:1003700011E0013031F490912E02992321F0C0E078
:1003800003C0C0E001C0C1E0813031F490912D0282
:10039000992321F090E003C090E001C091E0F92E94
:1003A00000932E0280932D02D11102C0112341F13E
:1003B00080912602909127020196909327028093C4
:1003C00026028EED91E096DEDD2331F0112321F03F
:1003D0008FEF91E08FDE09C0DD2321F087E092E00E
:1003E00089DE03C083E092E085DE8BE092E082DE6E
:1003F000809126029091270289DE8CE291E07ADEDC
:10040000C11103C0FF2009F493CF84E192E072DEB2
:10041000CC2331F0FF2021F08FEF91E06BDE09C09B
:10042000CC2321F087E092E065DE03C083E092E018
:1004300061DE81E292E05EDE7BCFA1E21A2EAA1B92
:10044000BB1BFD010DC0AA1FBB1FEE1FFF1FA21784
:10045000B307E407F50720F0A21BB30BE40BF50B81
:10046000661F771F881F991F1A9469F7609570950A
:10047000809590959B01AC01BD01CF010895A29F8D
:10048000B001B39FC001A39F700D811D1124911D68
:10049000B29F700D811D1124911D0895F894FFCF16
:1004A000496E6974204952313A204245414D2043FA
:1004B0004C4541520D0A00496E6974204952313A47
:1004C000204245414D2042524F4B454E0D0A0049B6
:1004D0006E6974204952323A204245414D20434CC6
:1004E0004541520D0A00496E6974204952323A2042
:1004F0004245414D2042524F4B454E0D0A00534557
:100500004E3035303320495220427265616B2042B3
:1005100065616D20494E543228504432292F494E8E
:1005200054342850453429204475616C2053656E3D
:10053000736F7220546573742053746172740D0A62
:100540000052657365742043617573653A200050ED
:100550004F5745522D4F4E200045585445524E415D
:100560004C200042524F574E2D4F555420005741BA
:10057000544348444F4720004A54414720004F62AB
:100580006A6563742044657465637465642120281A
:100590004245414D2042524F4B454E29205B004978
:1005A00052312B49523200495231005D20436F7560
:1005B0006E743D004265616D20436C656172205B25
:0605C000005D0D0A0000C1
:00000001FF
