:1000000045C0000060C000005EC0000009C10000E3
:100010005AC0000058C0000056C0000054C0000084
:1000200052C00000CFC000004EC000004CC0000015
:100030004AC0000048C0000046C0000044C00000A4
:1000400042C0000040C000003EC000003CC00000B4
:100050003AC0000038C0000036C0000034C00000C4
:1000600032C0000030C000002EC000002CC00000D4
:100070002AC0000028C0000026C0000024C00000E4
:1000800022C0000020C000001EC0000011241FBEBE
:10009000CFEFD0E1DEBFCDBF11E0A0E0B1E0E8E3FB
:1000A000F3E000E00BBF02C007900D92A238B10749
:1000B000D9F721E0A2E8B1E001C01D92AA38B20749
:1000C000E1F7C7D037C19CCF9B01AC0160E472E47B
:1000D0008FE090E0FED0215031093093900029B993
:1000E00088E18AB986E08093950008955D9BFECFF4
:1000F0008CB90895CF93DF93EC0102C02196F6DF0F
:1001000088818111FBCFDF91CF9108951F93CF9309
:10011000DF9300D000D000D0CDB7DEB7AC01892B83
:1001200079F580E3E3DF3CC09A01ADECBCECF3D0A1
:100130009695879596958795969587959C01220F1C
:10014000331F880F991F880F991F880F991F820FDF
:10015000931F9A01281B390BC901E1E0F0E0EC0F75
:10016000FD1FE10FF11D805D80839A01D4D0AC01A9
:100170005695479556954795569547951F5F01C0EB
:1001800010E04115510581F609C01150E1E0F0E0A1
:10019000EC0FFD1FE10FF11D8081A8DF1111F5CFDC
:1001A00026960FB6F894DEBF0FBECDBFDF91CF917C
:1001B0001F9108958CE085BD89EF83BD87B7806866
:1001C00087BF08951F920F920FB60F9211248F933D
:1001D0009F9380918601909187010196909387016A
:1001E000809386019F918F910F900FBE0F901F906B
:1001F000189581B38B7F81BB82B3846082BBEAE6B2
:10020000F0E080818F7C808380818061808389B7EA
:10021000846089BF089580B382FB882780F90895A0
:100220001F920F920FB60F9211248F939F9381E02C
:100230008093880180918601909187019093850138
:10024000809384019F918F910F900FBE0F901F900C
:10025000189560E875E280E090E036DFABDFC9DF3B
:10026000789487E291E046DFD6DF80938901882386
:1002700019F080E091E002C083E191E03BDF8091E2
:1002800088018823E1F3F894109288017894C3DF01
:1002900090918901891799F380938901811115C083
:1002A00080918201909183010196909383018093C4
:1002B00082018FE491E01EDF8091820190918301A1
:1002C00025DF84E291E016DFDACF85E791E012DFE7
:1002D000D6CFA1E21A2EAA1BBB1BFD010DC0AA1F7F
:1002E000BB1FEE1FFF1FA217B307E407F50720F09F
:1002F000A21BB30BE40BF50B661F771F881F991F1A
:100300001A9469F760957095809590959B01AC0162
:10031000BD01CF010895A29FB001B39FC001A39F6B
:10032000700D811D1124911DB29F700D811D11242E
:08033000911D0895F894FFCF20
:10033800496E69743A204245414D20434C4541522B
:100348000D0A00496E69743A204245414D204252D7
:100358004F4B454E0D0A0053454E3035303320493A
:100368005220427265616B204265616D20494E548E
:100378003220546573742053746172740D0A004FEF
:10038800626A6563742044657465637465642120DA
:10039800284245414D2042524F4B454E2920436F3C
:1003A800756E743D004265616D20436C6561720D28
:0203B8000A0039
:00000001FF
