S0150000544553542E495253454E534F522E737265632C
S113000045C0000058C0000056C0000054C00000A5
S113001052C0000050C000004EC000004CC00000A0
S11300204AC0000048C0000046C0000044C00000B0
S113003042C0000040C000003EC000003CC00000C0
S11300403AC0000038C0000036C0000034C00000D0
S113005032C0000030C000002EC000002CC00000E0
S11300602AC0000028C0000026C0000024C00000F0
S113007022C0000020C000001EC000001CC0000000
S11300801AC0000018C0000016C0000011241FBED2
S1130090CFEFD0E1DEBFCDBF11E0A0E0B1E0E0EBF7
S11300A0F1E000E00BBF02C007900D92AE37B1073C
S11300B0D9F72FD07BC0A4CF9B01AC0160E472E4DC
S11300C08FE090E051D0215031093093900029B94C
S11300D088E18AB986E08093950008955D9BFECF00
S11300E08CB90895CF93DF93EC0102C02196F6DF1B
S11300F088818111FBCFDF91CF91089581B38F7EE9
S113010081BB82B3806182BB089580B38295817084
S1130110089560E875E280E090E0CEDFEFDF87E2EB
S113012091E0E0DFF2DFD82F882319F080E091E03E
S113013002C083E191E0D6DFCD2FE7DFC817E9F3F2
S11301408FE99FE00197F1F700C00000DEDFD82FB0
S1130150C81799F3811104C08FE491E0C3DFECCF99
S113016080E791E0BFDFE8CFA1E21A2EAA1BBB1BF8
S1130170FD010DC0AA1FBB1FEE1FFF1FA217B3076F
S1130180E407F50720F0A21BB30BE40BF50B661F85
S1130190771F881F991F1A9469F760957095809549
S11301A090959B01AC01BD01CF010895F894FFCF58
S11301B0496E69743A204245414D20434C454152B1
S11301C00D0A00496E69743A204245414D2042525D
S11301D04F4B454E0D0A0053454E303530332049C0
S11301E05220427265616B204265616D2055415217
S11301F05420546573742053746172740D0A004F53
S1130200626A65637420446574656374656421205F
S1130210284245414D2042524F4B454E290D0A007C
S11102204265616D20436C6561720D0A000039
S9030000FC
