S01E000041544D454741313238415F494E544547524154494F4E2E73726563D8
S11300004FC000000C94070A0C94160A0C94250A9D
S113001065C000000C94340A61C000005FC0000099
S11300205DC000005BC0000059C0000057C0000064
S113003055C0000053C0000051C000000C945A0D7C
S11300404DC000004BC000000C94D90D0C94020E5E
S113005045C0000043C0000041C000003FC0000094
S11300603DC000003BC0000039C0000037C00000A4
S113007035C0000033C0000031C000002FC00000B4
S11300802DC000002BC0000029C00000C308A80830
S1130090AB08AE08B108B408B708BA08BD08C00870
S11300A011241FBECFEFD0E1DEBFCDBF11E0A0E031
S11300B0B1E0E0E3F4E200E00BBF02C007900D9270
S11300C0A63FB107D9F723E0A6EFB1E001C01D9226
S11300D0AD35B207E1F797D40C94161291CFA6EF81
S11300E0B1E012966D917C9113971196EC91119752
S11300F0F0E0EE0FFF1FE050FF4F80819181680F09
S1130100791F81E08C930C94460C0895811180939F
S1130110FA0180E00E944E090E94880A81E00E9450
S1130120160D85E08093F60108958091F6018823E9
S113013021F0853021F480E0089580E0089581E085
S113014008951F93CF93DF9300D0CDB7DEB7162F5A
S1130150ECDF811122C0AE014F5F5F4F612F81E060
S11301600E941E0C811107C0E6EFF1E082E0848357
S113017085E0808312C0E6EFF1E089819A81938360
S113018082831182148215821682178210860E943D
S1130190380981E00E944E09A2DF0F900F90DF9191
S11301A0CF911F9108959091F60181E0953009F067
S11301B080E008958091FA010895B7DF882339F02B
S11301C00E944309882319F081E0A0CF089580910B
S11301D0F6018230A1F018F4813031F008958330B3
S11301E039F1843081F1089581E00E94C00C8111BD
S11301F03CC00E94730A82E08093F60108950E9435
S1130200990A811132C00E94880A8091F7018230D4
S113021059F40E94880DE6EFF1E0658376838783C5
S1130220908784E08083089583E08093F6010895A5
S11302300E94990A811119C0E6EFF1E081818F5F74
S113024081834DCF08956091FB017091FC018091F1
S1130250FD019091FE0128E833E140E050E00E9466
S1130260940D882311F082E051CF08950F931F93CA
S1130270DC018C91813019F4ECE3F3E002C0E7E493
S1130280F3E0309709F468C092859923F1F1008175
S113029011812281338111964D915D916D917C91F3
S11302A01497041715072607370779F5248115963F
S11302B09C91159729131AC0258116969C9116971F
S11302C0291317C08130C1F4468157816085718537
S11302D017968D919D910D90BC91A02D48175907AB
S11302E06A077B0761F080E090E00BC080E090E05B
S11302F008C080E090E005C081E090E002C081E0A9
S113030090E021E08227817028C011964D915D9183
S11303106D917C9114974083518362837383159606
S11303208C911597848316968C91169785838C915E
S1130330813039F417968D919D910D90BC91A02D2B
S113034003C080E090E0DC0186839783A087B187B7
S113035081E0828780E001C080E01F910F910895C1
S11303600F931F93FC0101811281238134814091F9
S1130370360350913703609138037091390381E05B
S1130380041715072607370709F080E01F910F911E
S113039008958AE2E3E3F3E0DF011D928A95E9F729
S11303A00895809133030895809333030895CF9380
S11303B0DF93EC0180913303823009F445C028F4C3
S11303C0882351F0813069F15DC0853008F44DC057
S11303D0853009F451C056C06E818D810E94D80CBD
S11303E0811107C069817A818B819C8148E0CED6D6
S11303F049C089819A81AB81BC81E3E3F3E08383C3
S11304009483A583B6838D8187838E818087698158
S11304107A818B819C8146E051E0D4D581E0C4DFB0
S113042031C0CE019DDF882341F069817A818B81BF
S11304309C8146E051E0C6D525C069817A818B81D3
S11304409C8144E0A3D61EC0CE018ADF882331F00C
S113045069817A818B819C81EAD514C069817A8112
S11304608B819C8144E092D60DC069817A818B8115
S11304709C8144E08BD606C069817A818B819C8102
S113048047E084D6DF91CF910895CF92DF92EF9227
S1130490FF920F93CF93DF93EC018091330383306A
S11304A009F43EC028F4813051F0823079F06EC0F6
S11304B0843009F448C0853009F462C067C069819A
S11304C07A818B819C8145E061D660C09D81809159
S11304D03A0398131EC09E8180913B03981319C060
S11304E089819A81AB81BC818093360390933703D1
S11304F0A0933803B093390369817A818B819C81FD
S11305004BE051E05FD56E818D811BDE83E04CDFD3
S11305103DC069817A818B819C8146E037D636C0A3
S1130520CE011EDF882341F069817A818B819C8111
S11305304BE051E047D52AC069817A818B819C8147
S113054044E024D623C069817A818B819C81C09048
S11305505303D0905403E0905503F09056036C1568
S11305607D058E059F0549F4E3E3F3E0078D2281C1
S11305704181C701B6018ED509C044E007D606C043
S113058069817A818B819C8147E000D6DF91CF918C
S11305900F91FF90EF90DF90CF9008950F931F93EA
S11305A0FC01909133039923C9F09230F1F46181F5
S11305B072818381948100913603109137032091D5
S11305C0380330913903601771078207930769F480
S11305D044E151E0F7D480E0E7DE07C06181728135
S11305E08381948144E151E0EDD41F910F910895EA
S11305F0FC0190913303943099F4418152816381D9
S113060074818091530390915403A0915503B09148
S11306105603481759076A077B0711F480E0C4CED4
S113062008950F93CF93DF9360915803709159030A
S113063080915A0390915B0320E137E240E050E05F
S11306400E94940D8823C9F080915703863098F452
S1130650C3E3D3E08F5F8CA30E94880D6DA37EA3B8
S11306608FA398A768A179A18AA19BA10F8D2A8144
S1130670498110D502C080E097DEDF91CF910F91C0
S11306800895CF93DF93EC018F89811106C0809187
S11306905C03811148C0B9D546C08881833009F410
S11306A040C018F4813020F43EC08430B9F13BC01E
S11306B09D81923018F49E81953038F069817A8159
S11306C08B819C8141E062D52EC0813099F48F8169
S11306D09885A985BA850197A109B1098F339244F8
S11306E0AF40B10538F069817A818B819C8142E009
S11306F04DD519C0CE01BADD882339F069817A81DC
S11307008B819C8143E042D50EC08881813019F4ED
S1130710CE014DDE08C0CE01B8DE05C0CE013EDFFD
S113072002C0CE0165DFDF91CF9108950F93CF937F
S1130730DF93809133038330D9F018F4813031F0A2
S113074044C08430B1F18530B1F13FC00E940B0C3C
S113075081113BC0E3E3F3E0878181838085828359
S1130760638174818581968162D482E01DDE2DC00F
S11307701ADD882351F11EDDC3E3D3E08F8F8B8113
S11307809C81AD81BE8188A399A3AAA3BBA31CA20B
S11307900E94880D6DA37EA38FA398A768A179A159
S11307A08AA19BA10F8D2A81498174D484E0FCDD48
S11307B00CC037DF0AC06DD0882339F0E3E3F3E0DF
S11307C01182128211A680E0EFDDDF91CF910F91AB
S11307D00895CF93C82F60E070E00E942C0D8C2FF9
S11307E00E94420DC11104C081E08093000203C045
S11307F081E080930102CF910895CF93C82FE4D56F
S1130800811105C08C2F56D5811103C003C081E02E
S113081001C081E0CF910895EFEFF1E082E08083A1
S1130820118212820E94180C80E0E1D581E0DFC5BC
S11308300895CF93DF93CFEFD1E081E088831982CD
S11308401A821C821B821E821D820E94880D6F8365
S1130850788789879A8780E0CAD581E0C8D580E007
S113086029D5882311F080E0B4DF81E023D58823E3
S113087011F081E0AEDF80910002882339F080918D
S11308800102882319F083E08093FF01DF91CF9167
S113089008959091FF0181E0933009F080E008957C
S11308A0CF92DF92EF92FF928091FF01833009F49F
S11308B063C080910002811105C09FDF882311F07D
S11308C080E087DF80910102811106C081E095DF1D
S11308D0882311F081E07DDF80910002882341F0BC
S11308E080910102882321F083E08093FF0144C0BA
S11308F08091FF01813009F03FC00E94880D6B0197
S11309007C01609106027091070280910802909127
S1130910090225E030E040E050E00E94940D882375
S113092059F1EFEFF1E0C782D086E186F28681814A
S113093081110FC06FEF0E94110DEFEFF1E0838181
S113094094810196948383838830974010F064DF08
S113095013C08091010281110FC06FEF81E00E94EA
S1130960110DEFEFF1E085819681019696838583E1
S11309708037974108F050DFFF90EF90DF90CF90E1
S113098008950E947F0D0E94C60DA7D4ADD691D5BF
S113099000DD789481E080935C0385E005DD49CF38
S11309A00895CF93DF93CDB7DEB7C955D1090FB6FC
S11309B0F894DEBF0FBECDBF61E4CE0101960E9464
S11309C02F0E882351F0BE016E5B7F4FCE0101963E
S11309D0D7D0CE018E5B9F4F54DEC75ADF4F0FB680
S11309E0F894DEBF0FBECDBFDF91CF910895C2D47E
S11309F09DD6ABD5D6DC833021F0853019F450CFA9
S1130A000895DBCB0895BDDFCCDFF1DF8FDEFCCFB3
S1130A109FEB980F9A3140F090ED980F9A3030F098
S1130A208C3731F481E0089581E0089581E00895E0
S1130A3080E00895FC01DB018D939C9381E010C05C
S1130A409C3769F41192841778F4A82FB0E0AA0FA8
S1130A50BB1FA60FB71FED93FC938F5F01C03196A8
S1130A6090819111EDCF089580E008958F929F9227
S1130A70AF92BF92CF92DF92EF92FF920F931F93A8
S1130A806623B1F170E000E010E0980128C0FC0199
S1130A90E70FF11DE081F0EDFE0FFA3058F5000F7D
S1130AA0111F221F331F48015901880C991CAA1CCD
S1130AB0BB1C880C991CAA1CBB1C080D191D2A1DE3
S1130AC03B1DCE2ED12CE0E3CE1AD1080D2C000C08
S1130AD0EE08FF080C0D1D1D2E1D3F1D7F5F7617B0
S1130AE0B0F2FA01008311832283338381E003C0CF
S1130AF080E001C080E01F910F91FF90EF90DF90A4
S1130B00CF90BF90AF909F908F900895FC0188E1A3
S1130B10DF011D928A95E9F785E08083178A08959D
S1130B20FB0120E040E050E0BA0120C0DC01A20F4C
S1130B30B11DAC9130ED3A0F3A3030F03FEB3A0F43
S1130B403630B0F439EC3A0F440F551F661F771F47
S1130B50440F551F661F771F440F551F661F771FCD
S1130B60440F551F661F771F432B2F5F2830F0F269
S1130B70283021F44083518362837383822F089544
S1130B80AF92BF92CF92DF92EF92FF920F931F9397
S1130B90CF93DF93CDB7DEB7CA55D1090FB6F8941A
S1130BA0DEBF0FBECDBF7C015B01CB01AFDFF70120
S1130BB001900020E9F731976F01CE18DF080C2D62
S1130BC08FEF8C0D8F3308F0E6C110E009C0F701F8
S1130BD0E10FF11D80811CDF882309F4E1C11F5F4F
S1130BE01017A8F3A60155274F5F5F4FB701CE0139
S1130BF001960E94140F45E0BE016F5B7F4FCE014A
S1130C00019618DF182F882309F4C7C12396EEAC88
S1130C10FFAC239766E071E0C7010E941D0F892B8A
S1130C2009F0A4C0153009F093C0BE01695A7F4F82
S1130C3025968EAD9FAD259773DF883009F08AC065
S1130C402596EEADFFAD25978085811185C06B9605
S1130C508CAD9DADAEADBFAD6B97892B8A2B8B2B25
S1130C6009F47CC027968EAD9FAD2797FC010190B7
S1130C700020E9F73197BF01681B790BAE014D5A8B
S1130C805F4FF4DE882309F48BC129968EAD9FADA6
S1130C902997FC0101900020E9F73197BF01681BF7
S1130CA0790BAE01415B5F4FE1DE882309F478C123
S1130CB067968CAD9DADAEADBFAD67978F3F910587
S1130CC0A105B10511F008F04BC063968CAD9DAD44
S1130CD0AEADBFAD63978F3F9105A105B10511F08E
S1130CE008F040C02B968EAD9FAD2B97FC01019070
S1130CF00020E9F73197BF01681B790B6630A1F535
S1130D00AE01455B5F4FB2DE882309F449C191E02F
S1130D10F50190836B964CAD5DAD6EAD7FAD6B9779
S1130D20418352836383748364962FAD64972583D0
S1130D3060962FAD609726832F964CAD5DAD6EAD5A
S1130D407FAD2F974783508761877287978B28C120
S1130D5080E026C180E024C180E022C180E020C17F
S1130D6080E01EC180E01CC180E01AC16BE071E02C
S1130D70C7010E941D0F892B09F082C0143009F0AD
S1130D8073C0BE016D5A7F4F25968EAD9FAD2597DA
S1130D90C7DE883009F06AC02596EEADFFAD259711
S1130DA08085811165C067968CAD9DADAEADBFAD3C
S1130DB06797892B8A2B8B2B09F45CC027968EAD01
S1130DC09FAD2797FC0101900020E9F73197BF01FF
S1130DD0681B790BAE01415B5F4F48DE882309F441
S1130DE0DFC029968EAD9FAD2997FC0101900020AC
S1130DF0E9F73197BF01681B790BAE01455B5F4F83
S1130E0035DE882309F4CCC063964CAD5DAD6EAD80
S1130E107FAD63974F3F51056105710509F060F59A
S1130E202F964CAD5DAD6EAD7FAD2F974F3F510505
S1130E306105710509F010F592E0F501908367965C
S1130E404CAD5DAD6EAD7FAD6797418352836383D7
S1130E50748360969FAD609795832C969FAD2C9775
S1130E60968391E0978B9CC080E09AC080E098C004
S1130E7080E096C080E094C080E092C080E090C0A2
S1130E806CE171E0C701D9D7892B09F049C013304F
S1130E9009F03CC0BE01655B7F4F25968EAD9FADCA
S1130EA025973EDE8830A1F52596EEADFFAD25975A
S1130EB0808581112FC02F968CAD9DADAEADBFAD99
S1130EC02F97892B8A2B8B2B39F160E271E02796BF
S1130ED08EAD9FAD2797B1D7892B01F583E0F5013E
S1130EE080832F968CAD9DADAEADBFAD2F97818322
S1130EF09283A383B48327966EAD7FAD2797C501F4
S1130F000B96A4D781E0F501878B4AC080E048C0E6
S1130F1080E046C080E044C080E042C080E040C041
S1130F2064E171E0C70189D7892BC9F5123059F5FD
S1130F30BE01655B7F4F25968EAD9FAD2597F0DD95
S1130F40883019F52596EEADFFAD25978085811182
S1130F501EC02F968CAD9DADAEADBFAD2F97892B26
S1130F608A2B8B2BB1F084E0F50180832F968CAD16
S1130F709DADAEADBFAD2F9781839283A383B48320
S1130F8081E0878B0DC080E00BC080E009C080E069
S1130F9007C080E005C080E003C080E001C080E0BD
S1130FA0C65ADF4F0FB6F894DEBF0FBECDBFDF9138
S1130FB0CF911F910F91FF90EF90DF90CF90BF9052
S1130FC0AF9008950F931F93CF93DF93CDB7DEB700
S1130FD0A8970FB6F894DEBF0FBECDBF5F934F93B3
S1130FE09F938F937F936F938CE191E09F938F9363
S1130FF087E291E09F938F931F9288E28F938E01F3
S11310000F5F1F4F1F930F9328D7C80193D60FB6B6
S1131010F894DEBF0FBECDBFA8960FB6F894DEBF1E
S11310200FBECDBFDF91CF911F910F9108950F9304
S11310301F93CF93DF93CDB7DEB7A8970FB6F8947D
S1131040DEBF0FBECDBF9F938F937F936F9383E3D8
S113105091E09F938F9388E391E09F938F931F92E6
S113106088E28F938E010F5F1F4F1F930F93F5D666
S1131070C80160D60FB6F894DEBF0FBECDBFA896E8
S11310800FB6F894DEBF0FBECDBFDF91CF911F9195
S11310900F9108950F931F93CF93DF93CDB7DEB7CE
S11310A0A8970FB6F894DEBF0FBECDBF1F920F9363
S11310B03DEC239F512D1124569556955695550F69
S11310C0E52FEE0FEE0F5E0F251B1F922F93439F0C
S11310D0212D1124269526952695220F322F330F84
S11310E0330F230F421B1F924F939F938F937F9332
S11310F06F9380E291E09F938F9381E491E09F93BB
S11311008F931F9288E28F938E010F5F1F4F1F935F
S11311100F93A3D6C8010ED60FB6F894DEBF0FBE48
S1131120CDBFA8960FB6F894DEBF0FBECDBFDF913A
S1131130CF911F910F91089590E0FC013197EA300F
S1131140F10518F4EA5BFF4F57C681E591E0089575
S11311508EE691E008958BE791E0089587E891E0A9
S113116008958CE891E0089586E991E0089585EA70
S113117091E0089587EB91E0089585EC91E008955E
S113118081ED91E0089580E691E00895EF92FF9259
S11311900F931F93CF93DF93CDB7DEB7A8970FB606
S11311A0F894DEBF0FBECDBF162F072FF82EE92E01
S11311B0842FC2DF9F938F93EF92FF920F931F931D
S11311C08BEC91E09F938F9387E291E09F938F93B1
S11311D01F9288E28F938E010F5F1F4F1F930F930F
S11311E03CD6C801A7D50FB6F894DEBF0FBECDBF5D
S11311F0A8960FB6F894DEBF0FBECDBFDF91CF9196
S11312001F910F91FF90EF9008950F931F93CF9329
S1131210DF93CDB7DEB7A8970FB6F894DEBF0FBE45
S1131220CDBF80E089DF9F938F938BEC91E09F93F8
S11312308F938EED91E09F938F931F9288E28F930B
S11312408E010F5F1F4F1F930F9307D6C80172D5EE
S11312500FB6F894DEBF0FBECDBFA8960FB6F894B4
S1131260DEBF0FBECDBFDF91CF911F910F910895C7
S11312709FB7F89481E003C010920A0280E08111C4
S1131280FBCF9FBF08952FB7F89491E003C08091DE
S11312900A0290E09111FBCF2FBF0895882331F00B
S11312A084E188BF89B7846189BF089589B78B7E3B
S11312B089BF0895811103C090B3917007C0813034
S11312C051F4819B02C091E001C090E081E0913033
S11312D019F080E0089580E00895CF93EAE0F2E009
S11312E01082138214821582168280E006C0E82FD1
S11312F0F0E0E65FFD4F11828F5F8230C0F381B36F
S11313008E7F81BB81B38D7F81BB81B38B7F81BB9A
S113131082B18F7E82B982B38E7F82BB82B38D7F8E
S113132082BB82B3846082BB83B1806183B9EAE605
S1131330F0E08081807C8F6280838AB78C7F8260BA
S11313408ABF87E188BF89B78B7E89BF89B78360ED
S113135089BFC0E00BC08C2FADDF882331F0EC2FA8
S1131360F0E0E65FFD4F81E08183CF5FC23098F308
S1131370CF910895CF9360910D0270910E028091E8
S11313800F02909110022AE030E040E050E0CCD30C
S11313908823C1F0BDD360930D0270930E02809335
S11313A00F0290931002C0E00BC08C2F83DF8823C0
S11313B031F0EC2FF0E0E65FFD4F81E08183CF5FF9
S11313C0C23098F3CF910895823078F43FB7F894FF
S11313D021E006C0E82FF0E0E65FFD4F918120E0B8
S11313E02111F8CF3FBF892F089580E008958230FE
S11313F068F42FB7F89491E006C0E82FF0E0E65FB8
S1131400FD4F118290E09111F8CF2FBF08951F92E4
S11314100F920FB60F9211248F9381E080930B02E9
S11314208F910F900FBE0F901F9018951F920F92DF
S11314300FB60F9211248F9381E080930C028F9149
S11314400F900FBE0F901F9018951F920F920FB61A
S11314500F9211248F9381E080930A028F910F9051
S11314600FBE0F901F9018951F920F920FB60F92F8
S113147011248F9381E080930A028F910F900FBE05
S11314800F901F901895282F30E0A0EDB7E0BDD441
S113149024EB30E040E050E08DD4DA01C9018C50F7
S11314A09E4FAF4FBF4F9C01220F331F3BBD2ABD40
S11314B0089587B3806287BB82E88FBD8AE18EBDC1
S11314C08FE39CE997BD86BD1092160284EB80934E
S11314D0150210921102109212021092130210922D
S11314E01402D1CF089580911602811110C082E3B5
S11314F080931502C8DF81E08093160209D36093BC
S113150011027093120280931302909314020895AF
S113151084EB80931502B7DF83E080931602F8D240
S11315206093110270931202809313029093140239
S1131530089580911602813021F0833021F481E0F6
S1131540089581E0089580E0089580911602813025
S113155019F0833071F108956091110270911202B3
S1131560809113029091140224EF31E040E050E0A6
S1131570DBD2882371F1CCD26093110270931202F2
S1131580809313029093140280911502863018F40C
S11315901092150203C085508093150280911502A4
S11315A072DF80911502811114C082E080931602CB
S11315B0089560911102709112028091130290912A
S11315C0140226E930E040E050E0AED281111092DE
S11315D016020895811102C020E001C024E08FE0CA
S11315E090E0022E02C0880F991F0A94E2F79BB381
S11315F080956F7070E002C0660F771F2A95E2F73E
S11316008923682B6BBB0895811109C0FB011182EA
S113161010828CE895E0FA01918380830895FB01A0
S11316201182108284E392E1FA0191838083089508
S11316308617970734F0481759072CF4842F952FF1
S11316400895862F972F08951F93CF93DF93162F16
S1131650282F30E06130A9F4A901440F551F440F2D
S1131660551F440F551FF901EE0FFF1FE40FF51F1F
S1131670E95EFD4F448150E04F5F5F4F4370448308
S113168014C0A901440F551F440F551F440F551F83
S1131690F901EE0FFF1FE40FF51FE95EFD4F4481D2
S11316A050E04D5F5F4F43704483E901CC0FDD1F71
S11316B0220F331F220F331F220F331FC20FD31FDA
S11316C0C95EDD4FEC81F0E0EE50FE4F608182DFB9
S11316D088819981810F911D17FD9A95998388833B
S11316E0DF91CF911F9108958FEF8ABB1BBA20E041
S11316F01AC0822F90E0FC01EE0FFF1F880F991F84
S1131700880F991F880F991FE80FF91FE95EFD4F95
S11317101182108213821282148215821682178219
S1131720108611862F5F223020F30895CF92DF9226
S1131730EF92FF920F931F93CF93EAD16B017C0139
S1131740C0E05EC00C2F10E0F801EE0FFF1FC801CF
S1131750880F991F880F991F880F991FE80FF91F89
S1131760E95EFD4F8581813009F049C0C801880FC9
S1131770991F880F991F880F991FF801EE0FFF1FFB
S1131780E80FF91FE95EFD4F6681778180859185B9
S113179023E030E040E050E0C7D1882381F1C80164
S11317A0880F991F880F991F880F991FF801EE0F52
S11317B0FF1FE80FF91FE95EFD4FC682D782E0865E
S11317C0F18620813181828193812817390779F448
S11317D0F801EE0FFF1F000F111F000F111F000F64
S11317E0111FE00FF11FE95EFD4F158208C0281795
S11317F0390714F461E001C06FEF8C2F25DFCF5F50
S1131800C23008F49FCFCF911F910F91FF90EF90BA
S1131810DF90CF90089580911C02813029F080914F
S11318202602813019F4089581E0089580E0089536
S11318301BBAE7E1F2E015821786089581110FC003
S11318406230F0F4E62FF0E0EE0FFF1FE251FE4F9E
S113185080819181FA019183808381E008958130B0
S113186089F4653088F4E62FF0E0EE0FFF1FEC51A9
S1131870FE4F80819181FA019183808381E00895F4
S113188080E0089580E0089580E00895EF92FF924B
S11318900F931F93CF93DF9300D000D0CDB7DEB763
S11318A0823008F05FC0082F10E0F801EE0FFF1F30
S11318B09801220F331F220F331F220F331FE20F11
S11318C0F31FE95EFD4F9581913009F44DC07B0112
S11318D0AE014D5F5F4FBE016F5F7F4F95DE4B8161
S11318E05C8169817A81C701A3DE9801220F331FCD
S11318F0220F331F220F331FF801EE0FFF1FE20FD9
S1131900F31FE95EFD4F9383828320813181821727
S1131910930781F4F801EE0FFF1F000F111F000F52
S1131920111F000F111FE00FF11FE95EFD4F15821B
S113193081E01BC0C801880F991F000F111F000F01
S1131940111F000F111F080F191F095E1D4F81E0A1
S1131950F8018583DDD0F8016683778380879187DA
S113196081E003C080E001C080E00F900F900F90F1
S11319700F90DF91CF911F910F91FF90EF900895F9
S11319808230A0F490E0FC01EE0FFF1F880F991F36
S1131990880F991F880F991FE80FF91FE95EFD4F03
S11319A0958181E0913019F080E0089580E00895F8
S11319B00F931F93CF93DF9300D000D0CDB7DEB742
S11319C0062FAE014F5F5F4F682F80E037DF182F7F
S11319D08823E9F0AE014D5F5F4F602F81E02EDF79
S11319E0182F8823A1F080E0CBDF082F81110CC0D1
S11319F081E0C6DF81110AC069817A8147DF6B818A
S1131A007C8181E043DF03C010E001C0102F812FEF
S1131A100F900F900F900F90DF91CF911F910F9126
S1131A200895823010F461110FCE0895823098F435
S1131A3090E0FC01EE0FFF1F880F991F880F991F7C
S1131A40880F991FE80FF91FE95EFD4F1582808109
S1131A509181938382830895823098F490E0FC010D
S1131A60EE0FFF1F880F991F880F991F880F991F6A
S1131A70E80FF91FE95EFD4F71836083738362830E
S1131A8015820895CF93823098F4C82F60E0A2DDC8
S1131A908C2F90E0FC01EE0FFF1F880F991F880F19
S1131AA0991F880F991FE80FF91FE95EFD4F1582F2
S1131AB0CF9108951F920F920FB60F9211248F9316
S1131AC09F93AF93BF9380912B0290912C02A0918E
S1131AD02D02B0912E020196A11DB11D80932B02FF
S1131AE090932C02A0932D02B0932E02BF91AF913C
S1131AF09F918F910F900FBE0F901F90189512BE5B
S1131B008CE083BF89EF81BF87B7826087BF089568
S1131B102FB7F89460912B0270912C0280912D02C2
S1131B2090912E022FBF08958F929F92AF92BF92F1
S1131B30CF92DF92EF92FF924B015C0169017A012F
S1131B40E7DFDC01CB0188199909AA09BB0921E067
S1131B508C159D05AE05BF0508F420E0822FFF908B
S1131B60EF90DF90CF90BF90AF909F908F900895AB
S1131B708091B2029091B102891B8F770895809170
S1131B80300290912F02891B8F7708951092B20230
S1131B901092B1021092300210922F021092900013
S1131BA087E689B91BB886E08093950088E98AB9ED
S1131BB008951F920F920FB60F9211240BB60F9235
S1131BC02F938F939F93EF93FF932CB18091B20245
S1131BD08F5F8F779091B102891741F0E091B20243
S1131BE0F0E0ED54FD4F20838093B202FF91EF911A
S1131BF09F918F912F910F900BBE0F900FBE0F905E
S1131C001F9018951F920F920FB60F9211240BB6C6
S1131C100F928F939F93EF93FF9390912F02809154
S1131C203002981771F0E0912F02F0E0EF5CFD4F65
S1131C3080818CB980912F028F5F8F7780932F02E0
S1131C4003C08AB18F7D8AB9FF91EF919F918F91E3
S1131C500F900BBE0F900FBE0F901F9018951F93FF
S1131C60CF93DF93009709F45AC0662309F459C04F
S1131C70162FEC017DDF882309F455C090E00BC0DA
S1131C80E091B102E90FEF77F0E0ED54FD4F2081D0
S1131C902A3019F09F5F981798F398130CC08F3768
S1131CA009F043C08FB7F8949091B2029093B102B7
S1131CB08FBF80E03BC0992371F0E091B102E90F3E
S1131CC0E150EF77F0E0ED54FD4F80818D3029F441
S1131CD03FEF390F03C0392F01C0392F311710F0EE
S1131CE03FEF310F80E00DC0E091B102E80FEF77D4
S1131CF0DE01A80FB11DF0E0ED54FD4F20812C93BF
S1131D008F5F831788F3C30FD11D18828091B102AE
S1131D10980F9F5F9F779093B10281E007C080E0A6
S1131D2005C080E003C080E001C080E0DF91CF9176
S1131D301F9108950F931F93CF93DF930097A9F1F9
S1131D40FC0101900020E9F73197E81BF90BE0381A
S1131D50F10558F58C01DE2FC1E0CE0F10DF9FE7AF
S1131D60981B9C1710F13FB7F8949091300220E033
S1131D700CC0E92FF0E0D801A20FB11D8C91EF5CEB
S1131D80FD4F80839F5F9F772F5F2D1790F3E92F7F
S1131D90F0E0EF5CFD4F8AE080839F5F9F77909334
S1131DA030028AB180628AB93FBFDF91CF911F911F
S1131DB00F910895A1E21A2EAA1BBB1BFD010DC0B1
S1131DC0AA1FBB1FEE1FFF1FA217B307E407F507E7
S1131DD020F0A21BB30BE40BF50B661F771F881FC3
S1131DE0991F1A9469F760957095809590959B0159
S1131DF0AC01BD01CF010895EE0FFF1F0024001CAC
S1131E000BBE0790F691E02D0994A29FB001B39FF9
S1131E10C001A39F700D811D1124911DB29F700DEF
S1131E20811D1124911D0895FB01DC0102C0019064
S1131E300D9241505040D8F70895FB01DC018D917B
S1131E40019080190110D9F3990B0895FB01DC016D
S1131E5001900D920020E1F708950F931F93CF9303
S1131E60DF93CDB7DEB72E970FB6F894DEBF0FBE63
S1131E70CDBF0D891E898F89988D26E02C831A8306
S1131E80098397FF02C080E090E801979E838D83C9
S1131E90AE01455E5F4F698D7A8DCE01019619D0F2
S1131EA04D815E8157FD0AC02F8138854217530743
S1131EB00CF49A01F801E20FF31F10822E960FB66C
S1131EC0F894DEBF0FBECDBFDF91CF911F910F916C
S1131ED008952F923F924F925F926F927F928F92CA
S1131EE09F92AF92BF92CF92DF92EF92FF920F93A5
S1131EF01F93CF93DF93CDB7DEB72B970FB6F8942C
S1131F00DEBF0FBECDBF6C017B018A01FC011782CD
S1131F101682838181FFBFC1CE0101963C01F60187
S1131F209381F70193FD859193FF81917F0188232C
S1131F3009F4ADC1853239F493FD859193FF819104
S1131F407F01853221F4B60190E0D6D1E8CF912CFF
S1131F50212C312CFFE1F315D8F08B3279F038F4D1
S1131F60803279F08332A1F4232D20611DC08D329B
S1131F7061F0803369F4232D216016C0832D8260C3
S1131F80382EE32DE4603E2E2AC0F32DF8601DC0E8
S1131F9037FC2DC020ED280F2A3040F08E32B9F4E2
S1131FA036FC75C1232D2064322E19C036FE06C0BE
S1131FB08AE0989E200D1124922E11C0EAE02E9EF4
S1131FC0200D1124222EF32DF0623F2E08C08C36F2
S1131FD021F4832D8068382E02C0883641F4F7013D
S1131FE093FD859193FF81917F018111B3CF982F48
S1131FF09F7D9554933028F40C5F1F4F9FE3998382
S11320000DC0833631F0833771F0833509F055C044
S113201020C0F801808189830E5F1F4F8824839438
S1132020912C530112C02801F2E04F0E511CF8010B
S1132030A080B18036FE03C0692D70E002C06FEF4E
S11320407FEFC5014ED14C018201F32DFF773F2E66
S113205015C0280122E0420E511CF801A080B18075
S113206036FE03C0692D70E002C06FEF7FEFC5013B
S11320702DD14C01F32DF0683F2E820133FC19C0A1
S1132080822D90E088169906A0F4B60180E290E0D3
S113209033D12A94F5CFF50137FC859137FE819130
S11320A05F01B60190E028D121102A9421E0821A20
S11320B091088114910479F7E1C0843611F08936CE
S11320C039F5F80137FE07C06081718182819381FF
S11320D00C5F1F4F08C060817181072E000C880BB4
S11320E0990B0E5F1F4FF32DFF763F2E97FF09C00C
S11320F090958095709561957F4F8F4F9F4FF068B5
S11321003F2E2AE030E0A30133D1882E861844C044
S1132110853731F4232D2F7EB22E2AE030E025C0FE
S1132120932D997FB92E8F36C1F018F4883579F044
S1132130AEC0803719F0883721F0A9C0E92FE061DB
S1132140BE2EB4FE0DC0FB2DF460BF2E09C034FEBC
S11321500AC0292F2660B22E06C028E030E005C050
S113216020E130E002C020E132E0F801B7FE07C010
S113217060817181828193810C5F1F4F06C06081F1
S1132180718180E090E00E5F1F4FA301F1D0882E93
S11321908618FB2DFF773F2E36FE0DC0232D2E7F94
S11321A0A22E891458F434FE0BC032FC09C0832DCE
S11321B08E7EA82E05C0B82CA32C03C0B82C01C059
S11321C0B92CA4FE0FC0FE01E80DF11D80818033FF
S11321D021F49A2D997EA92E09C0A2FE06C0B394BB
S11321E0B39404C08A2D867809F0B394A3FC10C07C
S11321F0A0FE06C0B21480F4280C922C9B180DC0CB
S1132200B21458F4B60180E290E076D0B394F8CFDB
S1132210B21418F42B1802C0982C212CA4FE0FC061
S1132220B60180E390E068D0A2FE16C0A1FC03C012
S113223088E790E002C088E590E0B6010CC08A2DE2
S1132240867851F0A1FE02C08BE201C080E2A7FCB7
S11322508DE2B60190E050D0891430F4B60180E3E9
S113226090E04AD09A94F8CF8A94F301E80DF11DD6
S11322708081B60190E040D08110F6CF222009F48D
S11322804ECEB60180E290E037D02A94F7CFF60123
S11322908681978102C08FEF9FEF2B960FB6F8943B
S11322A0DEBF0FBECDBFDF91CF911F910F91FF9085
S11322B0EF90DF90CF90BF90AF909F908F907F90E2
S11322C06F905F904F903F902F900895FC01059080
S11322D0615070400110D8F7809590958E0F9F1F24
S11322E00895FC016150704001900110D8F7809569
S11322F090958E0F9F1F08950F931F93CF93DF9395
S1132300FB01238121FD03C08FEF9FEF2CC022FF2F
S113231016C046815781248135814217530744F4FE
S1132320A081B1819D012F5F3F4F318320838C9326
S1132330268137812F5F3F4F3783268314C08B015B
S1132340EC01FB010084F185E02D0995892BE1F670
S1132350D80116968D919C911797019617969C9388
S11323608E931697CE01DF91CF911F910F9108950F
S1132370FA01AA27283051F1203181F1E8946F93B2
S11323806E7F6E5F7F4F8F4F9F4FAF4FB1E03ED058
S1132390B4E03CD0670F781F891F9A1FA11D680FF6
S11323A0791F8A1F911DA11D6A0F711D811D911D29
S11323B0A11D20D009F468943F912AE0269F11249E
S11323C03019305D3193DEF6CF010895462F477002
S11323D0405D4193B3E00FD0C9F7F6CF462F4F705D
S11323E0405D4A3318F0495D31FD4052419302D0BB
S11323F0A9F7EACFB4E0A695979587957795679561
S1132400BA95C9F700976105710508959B01AC0160
S11324100A2E06945795479537952795BA95C9F787
S1132420620F731F841F951FA01D0895F894FFCF9A
S1132430C4FF00003C004D4F5645004449535045ED
S11324404E53450054494D454F55540041434B00AC
S1132450524553554C540025737C2530386C587CB8
S1132460257300574149540025737C2530386C5836
S11324700025737C2530386C587C257525752575A9
S113248000494E56414C49445F464F524D41540019
S1132490494E56414C49445F434F4F524400494EC4
S11324A056414C49445F54494D450049445F434FAC
S11324B04E464C4943540042555359004E4F545FC5
S11324C0524541445900434F4F52445F4D49534D87
S11324D041544348005245434F564552595F524573
S11324E051554952454400535445505045525F4557
S11324F052524F5200534552564F5F4552524F521B
S11325000053454E534F525F4552524F520025736C
S11325107C2573000000B004FC08700DF811000065
S10925208C0503060C0902
S9030000FC
