:1000000045C0000058C0000056C0000054C00000A9
:1000100052C0000050C000004EC000004CC00000A4
:100020004AC0000048C0000046C0000044C00000B4
:1000300042C0000040C000003EC000003CC00000C4
:100040003AC0000038C0000036C0000034C00000D4
:1000500032C0000030C000002EC000002CC00000E4
:100060002AC0000028C0000026C0000024C00000F4
:1000700022C0000020C000001EC000001CC0000004
:100080001AC0000018C0000016C0000011241FBED6
:10009000CFEFD0E1DEBFCDBF11E0A0E0B1E0E4ECF6
:1000A000F2E000E00BBF02C007900D92A831B1074B
:1000B000D9F784D005C1A4CF87B3806287BB82E81B
:1000C0008FBD8AE18EBD8FE39CE997BD86BD089503
:1000D000880F991F9BBD8ABD0895282F30E0A0EDA1
:1000E000B7E0ACD024EB30E040E050E085D0C9016F
:1000F0008C509E4F089581B38E7F81BB82B3816007
:1001000082BB089590B3892F817090FD18C02FEFA6
:1001100039EF90E0215030409040E1F700C00000FE
:1001200080990EC0809BFECF2FEF39EF80E02150E9
:1001300030408040E1F700C0000081E0089580E099
:1001400008951092900087E689B988E08AB986E020
:100150008093950008955D9BFECF8CB90895CF9351
:10016000DF93EC0102C0F7DF219688818111FBCF7C
:10017000DF91CF9108951F93CF93DF9300D000D0EC
:1001800000D0CDB7DEB7182F80E091E0E8DF4AE07D
:10019000BE016F5F7F4F812F90E05FD0CE0101964F
:1001A000DEDF80E191E0DBDF26960FB6F894DEBF5C
:1001B0000FBECDBFDF91CF911F9108957DDF9BDFF3
:1001C000C0DF84EB8ADF84DF84EBD5DFC4EB9ADF0A
:1001D0008823E9F3C43B39F482E37FDF79DF82E3EC
:1001E000CADFC2E3F4CFC53090F3C5508C2F75DF62
:1001F0006FDF8C2FC0DFEBCFA1E21A2EAA1BBB1B37
:10020000FD010DC0AA1FBB1FEE1FFF1FA217B307E2
:10021000E407F50720F0A21BB30BE40BF50B661FF8
:10022000771F881F991F1A9469F7609570958095BC
:1002300090959B01AC01BD01CF010895A29FB00133
:10024000B39FC001A39F700D811D1124911DB29F0A
:10025000700D811D1124911D0895BB274A3031F482
:10026000992322F4BDE2909581959F4F01C0BB2751
:10027000FB015527AA27880F991FAA1FA41710F062
:10028000A41B83955051B9F7A05DAA3308F0A95D6E
:10029000A193009779F7B111B1931192CB0100C0EE
:1002A000DC01FC01672F71917723E1F7329704C0DD
:1002B0007C916D9370836291AE17BF07C8F3089568
:0402C000F894FFCFE0
:1002C40043757272656E7420616E676C653A2000C6
:0802D400206465670D0A0000BB
:00000001FF
