:1000000045C0000058C0000056C0000054C00000A9
:1000100052C0000050C000004EC000004CC00000A4
:100020004AC0000048C0000046C0000044C00000B4
:1000300042C0000040C000003EC000003CC00000C4
:100040003AC0000038C0000036C0000034C00000D4
:1000500032C0000030C000002EC000002CC00000E4
:100060002AC0000028C0000026C0000024C00000F4
:1000700022C0000020C000001EC000001CC0000004
:100080001AC0000018C0000016C0000011241FBED6
:10009000CFEFD0E1DEBFCDBF11E0A0E0B1E0E0EFF7
:1000A000F1E000E00BBF02C007900D92AA39B10742
:1000B000D9F73DD09BC0A4CF9B01AC0160E472E4B2
:1000C0008FE090E071D0215031093093900029B930
:1000D00088E18AB986E08093950008955D9BFECF04
:1000E0008CB90895CF93DF93EC0102C02196F6DF1F
:1000F00088818111FBCFDF91CF9108955F9BFECF67
:100100008CB1089587B3806287BB82E88FBD8AE196
:100110008EBD8FE39CE997BD86BD88EE93E09BBDC5
:100120008ABD0895880F991F9BBD8ABD089560E818
:1001300075E280E090E0C0DFE5DF80E091E0D2DFB3
:100140008DE191E0CFDFDADF8233C9F028F480332C
:1001500041F0813369F0F7CF8333C1F08433E9F0A4
:10016000F2CF84EF91E0DEDF88E491E0BBDFEBCFFC
:1001700088EE93E0D7DF87E591E0B4DFE4CF8CED44
:1001800095E0D0DF87E691E0ADDFDDCF80ED97E051
:10019000C9DF87E791E0A6DFD6CF84EC99E0C2DF24
:1001A00088E891E09FDFCFCFA1E21A2EAA1BBB1BEC
:1001B000FD010DC0AA1FBB1FEE1FFF1FA217B30733
:1001C000E407F50720F0A21BB30BE40BF50B661F49
:1001D000771F881F991F1A9469F76095709580950D
:1001E00090959B01AC01BD01CF010895F894FFCF1C
:1001F0005347393020536572766F20554152542051
:10020000546573742053746172740D0A00303A306F
:1002100064656720313A343564656720323A393095
:1002200064656720333A31333564656720343A3189
:1002300038306465670D0A00416E676C653A20309E
:10024000206465670D0A00416E676C653A2034359D
:10025000206465670D0A00416E676C653A2039308D
:10026000206465670D0A00416E676C653A20313382
:1002700035206465670D0A00416E676C653A203170
:0A0280003830206465670D0A0000A5
:00000001FF
